{
  "contractName": "NotaryStar",
  "abi": [
    {
      "inputs": [],
      "stateMutability": "nonpayable",
      "type": "constructor"
    },
    {
      "anonymous": false,
      "inputs": [
        {
          "indexed": false,
          "internalType": "string",
          "name": "newStarName",
          "type": "string"
        },
        {
          "indexed": false,
          "internalType": "address",
          "name": "changedBy",
          "type": "address"
        }
      ],
      "name": "NameChanged",
      "type": "event"
    },
    {
      "anonymous": false,
      "inputs": [
        {
          "indexed": false,
          "internalType": "string",
          "name": "setName",
          "type": "string"
        }
      ],
      "name": "NameSet",
      "type": "event"
    },
    {
      "anonymous": false,
      "inputs": [
        {
          "indexed": false,
          "internalType": "address",
          "name": "claimedBy",
          "type": "address"
        }
      ],
      "name": "StarClaimed",
      "type": "event"
    },
    {
      "inputs": [],
      "name": "starName",
      "outputs": [
        {
          "internalType": "string",
          "name": "",
          "type": "string"
        }
      ],
      "stateMutability": "view",
      "type": "function",
      "constant": true
    },
    {
      "inputs": [],
      "name": "starOwner",
      "outputs": [
        {
          "internalType": "address",
          "name": "",
          "type": "address"
        }
      ],
      "stateMutability": "view",
      "type": "function",
      "constant": true
    },
    {
      "inputs": [],
      "name": "claimStar",
      "outputs": [],
      "stateMutability": "nonpayable",
      "type": "function"
    },
    {
      "inputs": [
        {
          "internalType": "string",
          "name": "_newName",
          "type": "string"
        }
      ],
      "name": "changeName",
      "outputs": [],
      "stateMutability": "nonpayable",
      "type": "function"
    }
  ],
  "bytecode": "0x608060405234801561001057600080fd5b506040518060400160405280600981526020017f47726561746e65737300000000000000000000000000000000000000000000008152506000908051906020019061005c929190610062565b50610166565b82805461006e90610105565b90600052602060002090601f01602090048101928261009057600085556100d7565b82601f106100a957805160ff19168380011785556100d7565b828001600101855582156100d7579182015b828111156100d65782518255916020019190600101906100bb565b5b5090506100e491906100e8565b5090565b5b808211156101015760008160009055506001016100e9565b5090565b6000600282049050600182168061011d57607f821691505b6020821081141561013157610130610137565b5b50919050565b7f4e487b7100000000000000000000000000000000000000000000000000000000600052602260045260246000fd5b61071e806101756000396000f3fe608060405234801561001057600080fd5b506004361061004c5760003560e01c80635353a2d81461005157806388d5896c1461006d578063a434c2721461008b578063c5946ae0146100a9575b600080fd5b61006b60048036038101906100669190610389565b6100b3565b005b610075610148565b60405161008291906104b5565b60405180910390f35b6100936101d6565b6040516100a0919061049a565b60405180910390f35b6100b16101fc565b005b80600090805190602001906100c9929190610276565b5033600160006101000a81548173ffffffffffffffffffffffffffffffffffffffff021916908373ffffffffffffffffffffffffffffffffffffffff1602179055507f1e3652b21ef1bd2c76130610ad0be2b8ab01fbea80964c84c54473bf090dc8a460003360405161013d9291906104d7565b60405180910390a150565b6000805461015590610602565b80601f016020809104026020016040519081016040528092919081815260200182805461018190610602565b80156101ce5780601f106101a3576101008083540402835291602001916101ce565b820191906000526020600020905b8154815290600101906020018083116101b157829003601f168201915b505050505081565b600160009054906101000a900473ffffffffffffffffffffffffffffffffffffffff1681565b33600160006101000a81548173ffffffffffffffffffffffffffffffffffffffff021916908373ffffffffffffffffffffffffffffffffffffffff1602179055507f3dec9e4592daf7162ad4fcc1cb7b58d0b0b02cd6da1f2942932f4f5c583eacaa3360405161026c919061049a565b60405180910390a1565b82805461028290610602565b90600052602060002090601f0160209004810192826102a457600085556102eb565b82601f106102bd57805160ff19168380011785556102eb565b828001600101855582156102eb579182015b828111156102ea5782518255916020019190600101906102cf565b5b5090506102f891906102fc565b5090565b5b808211156103155760008160009055506001016102fd565b5090565b600061032c6103278461052c565b610507565b905082815260208101848484011115610348576103476106c8565b5b6103538482856105c0565b509392505050565b600082601f8301126103705761036f6106c3565b5b8135610380848260208601610319565b91505092915050565b60006020828403121561039f5761039e6106d2565b5b600082013567ffffffffffffffff8111156103bd576103bc6106cd565b5b6103c98482850161035b565b91505092915050565b6103db8161058e565b82525050565b60006103ec82610572565b6103f6818561057d565b93506104068185602086016105cf565b61040f816106d7565b840191505092915050565b6000815461042781610602565b610431818661057d565b9450600182166000811461044c576001811461045e57610491565b60ff1983168652602086019350610491565b6104678561055d565b60005b838110156104895781548189015260018201915060208101905061046a565b808801955050505b50505092915050565b60006020820190506104af60008301846103d2565b92915050565b600060208201905081810360008301526104cf81846103e1565b905092915050565b600060408201905081810360008301526104f1818561041a565b905061050060208301846103d2565b9392505050565b6000610511610522565b905061051d8282610634565b919050565b6000604051905090565b600067ffffffffffffffff82111561054757610546610694565b5b610550826106d7565b9050602081019050919050565b60008190508160005260206000209050919050565b600081519050919050565b600082825260208201905092915050565b6000610599826105a0565b9050919050565b600073ffffffffffffffffffffffffffffffffffffffff82169050919050565b82818337600083830152505050565b60005b838110156105ed5780820151818401526020810190506105d2565b838111156105fc576000848401525b50505050565b6000600282049050600182168061061a57607f821691505b6020821081141561062e5761062d610665565b5b50919050565b61063d826106d7565b810181811067ffffffffffffffff8211171561065c5761065b610694565b5b80604052505050565b7f4e487b7100000000000000000000000000000000000000000000000000000000600052602260045260246000fd5b7f4e487b7100000000000000000000000000000000000000000000000000000000600052604160045260246000fd5b600080fd5b600080fd5b600080fd5b600080fd5b6000601f19601f830116905091905056fea264697066735822122032249bd0184599897ae9d1f22c702abd2dfd1cfc5573fb8b51ee9b9f654315e564736f6c63430008070033",
  "immutableReferences": {},
  "source": "// SPDX-License-Identifier: MIT\npragma solidity >=0.4.0;\n\ncontract NotaryStar {\n  string public starName;\n  address public starOwner;\n\n  event NameSet(string setName);\n  event StarClaimed(address claimedBy);\n  event NameChanged(string newStarName, address changedBy);\n\n  constructor() {\n    starName = \"Greatness\";\n    // emit NameSet(starName);\n\n  }\n\n  function claimStar() public {\n    starOwner = msg.sender;\n    emit StarClaimed(msg.sender);\n\n  }\n\n  function changeName(string  memory _newName) public {\n    starName = _newName;\n    starOwner = msg.sender;\n    emit NameChanged(starName, msg.sender);\n\n  }\n}",
  "sourcePath": "/home/sprtd/Desktop/Udacity/lesson-3/star-notary-react-v1/contracts/NotaryStar.sol",
  "compiler": {
    "name": "solc",
    "version": "0.8.7+commit.e28d00a7.Emscripten.clang"
  },
  "schemaVersion": "3.4.3",
  "updatedAt": "2021-08-29T17:57:31.396Z",
  "networkType": "ethereum",
  "devdoc": {
    "kind": "dev",
    "methods": {},
    "version": 1
  },
  "userdoc": {
    "kind": "user",
    "methods": {},
    "version": 1
  }
}